:020000040800F2
:1000000000000220990A00080D0A0008130A0008DF
:10001000190A00081F0A0008250A0008000000004D
:100020000000000000000000000000002B0A000893
:10003000390A000800000000470A0008550A0008B5
:10004000E90A0008E90A0008E90A0008E90A0008C4
:10005000E90A0008E90A0008E90A0008E90A0008B4
:10006000E90A0008E90A0008E90A0008E90A0008A4
:10007000E90A0008E90A0008E90A0008E90A000894
:10008000E90A0008E90A0008E90A0008E90A000884
:10009000E90A0008E90A0008E90A0008E90A000874
:1000A000E90A0008E90A0008E90A0008E90A000864
:1000B000610A0008E90A0008E90A0008E90A0008DC
:1000C000E90A0008E90A0008E90A0008E90A000844
:1000D000E90A0008E90A0008E90A0008E90A000834
:1000E000E90A0008E90A0008E90A0008E90A000824
:1000F000E90A0008E90A0008E90A0008E90A000814
:10010000E90A0008E90A0008E90A0008E90A000803
:10011000E90A0008E90A0008E90A0008E90A0008F3
:10012000E90A0008E90A0008E90A0008E90A0008E3
:10013000E90A0008E90A0008E90A0008E90A0008D3
:10014000E90A0008E90A0008E90A0008E90A0008C3
:10015000E90A0008E90A0008E90A0008E90A0008B3
:10016000E90A0008E90A0008E90A0008E90A0008A3
:10017000E90A0008E90A0008E90A0008000000008E
:08018000E90A0008E90A000881
:1001880010B5054C237833B9044B13B10448AFF3C9
:1001980000800123237010BD0C0000200000000027
:1001A8003024000808B5034B1BB103490348AFF3DB
:1001B800008008BD00000000100000203024000866
:1001C80053B94AB9002908BF00281CBF4FF0FF31B6
:1001D8004FF0FF3000F070B9ADF1080C6DE904CEB6
:1001E80000F006F8DDF804E0DDE9022304B070470A
:1001F8002DE9F047089E0D4604460F46002B4AD1CC
:100208008A42944665D9B2FA82F343B102FA03FCF2
:10021800C3F120029F4020FA02F217439C404FEAA4
:100228001C4E1FFA8CF5B7FBFEF1220C0EFB117762
:1002380042EA074201FB05F090420AD91CEB020290
:1002480001F1FF3780F01C81904240F21981023998
:100258006244121AA4B2B2FBFEF00EFB102244EA6A
:10026800024400FB05F5A5420AD91CEB040400F181
:10027800FF3280F00781A54240F2048164440238CD
:1002880040EA0140641B00211EB1DC400023C6E99E
:100298000043BDE8F0878B4208D9002E00F0ED80BE
:1002A8000021C6E900050846BDE8F087B3FA83F1E6
:1002B800002949D1AB4202D3824200F2F880841A65
:1002C80065EB030201201746002EE2D0C6E900477D
:1002D800DFE702B9FFDEB2FA82F3002B40F090802C
:1002E8008A1A4FEA1C471FFA8CFE0121B2FBF7F568
:1002F80007FB1520220C42EA00420EFB05F0904253
:1003080008D91CEB020205F1FF3802D2904200F234
:10031800CB804546121AA4B2B2FBF7F007FB1022B5
:1003280044EA02440EFB00FEA64508D91CEB04046F
:1003380000F1FF3202D2A64500F2BB801046A4EBC2
:100348000E0440EA05409FE7C1F120078B4022FADE
:1003580007FC4CEA030C05FA01F420FA07F3FD4008
:100368004FEA1C492343B5FBF9F81FFA8CFE09FB39
:1003780018551C0C44EA054408FB0EF5A54202FA80
:1003880001F200FA01F00BD91CEB040408F1FF3A62
:1003980080F08880A54240F28580A8F10208644474
:1003A800641B9DB2B4FBF9F309FB134445EA04440A
:1003B80003FB0EFEA64508D91CEB040403F1FF3528
:1003C8006CD2A6456AD9023B644443EA0843A3FBBE
:1003D8000295A4EB0E04AC42C846AE4656D353D0A1
:1003E80056B1B0EB080264EB0E0404FA07F7CA40F2
:1003F800CC401743C6E9007418460021BDE8F087D1
:10040800C3F1200102FA03FC20FA01F225FA01F1F6
:100418009D402A434FEA1C471FFA8CFEB1FBF7F0B8
:1004280007FB1015110C41EA054100FB0EF58D4242
:1004380004FA03F408D91CEB010100F1FF382FD2AC
:100448008D422DD902386144491B92B2B1FBF7F5B0
:1004580007FB151142EA014205FB0EF1914208D94A
:100468001CEB020205F1FF3816D2914214D9023D65
:100478006244521A45EA004138E73146304608E7F7
:100488003946E6E61046FBE64845A9D2B9EB02082C
:1004980065EB0C0E013BA3E74546EAE72B4694E7DC
:1004A8004046D1E7D0467BE7023D624432E7084642
:1004B8000AE76444023842E7704700BF80B500AFDE
:1004C80000F010FB00F018F800F002F900F0B4F8A2
:1004D80000F07CF800F0AAF94FF47A7000F0C0F947
:1004E80000F0D2F90346002BFAD04FF47A7000F0EE
:1004F800B7F900F091F9F3E780B594B000AF07F1D0
:10050800200330220021184601F062FF07F10C0396
:1005180000221A605A609A60DA601A610023BB6090
:10052800284B1B6C274A43F080531364254B1B6CE4
:1005380003F08053BB60BB6800237B60224B1B68C1
:10054800214A43F4804313601F4B1B6803F4804324
:100558007B607B6802233B620123FB6210233B63C1
:100568000223BB630023FB6308233B64A8237B644B
:100578000223BB640423FB6407F12003184600F040
:1005880005FE0346002B01D000F064F90F23FB6041
:1005980002233B6100237B614FF4A053BB614FF4FE
:1005A8008053FB6107F10C030521184601F066F83A
:1005B8000346002B01D000F04DF900BF5037BD466F
:1005C80080BD00BF003802400070004080B500AF19
:1005D800174B184A1A60164B4FF482725A60144B24
:1005E80000229A60124B0022DA60114B00221A6135
:1005F8000F4B00225A610E4B4FF400729A610C4B5C
:100608000022DA610A4B00221A62094B00225A6260
:10061800074B00229A62064B0A22DA62044801F06C
:10062800D9F90346002B01D000F014F900BF80BDB2
:10063800280000200030014080B586B000AF07F1E7
:10064800080300221A605A609A60DA603B4600226A
:100658001A605A601D4B4FF080421A601B4B42F2E1
:10066800CF025A60194B00229A60184B0922DA60AF
:10067800164B00221A61154B00229A61134801F0AB
:1006880032FA0346002B01D000F0E4F84FF480530F
:10069800BB6007F1080319460C4801F0D3FB034679
:1006A800002B01D000F0D6F800233B6000237B60CC
:1006B8003B461946054801F0FBFD0346002B01D0D7
:1006C80000F0C8F800BF1837BD4680BD8000002084
:1006D80080B58CB000AF07F11C0300221A605A6085
:1006E8009A60DA601A610023BB61474B1B6B464A6C
:1006F80043F010031363444B1B6B03F01003BB61FF
:10070800BB6900237B61404B1B6B3F4A43F080036E
:1007180013633D4B1B6B03F080037B617B690023F4
:100728003B61394B1B6B384A43F040031363364B2C
:100738001B6B03F040033B613B690023FB60324BBA
:100748001B6B314A43F0010313632F4B1B6B03F000
:100758000103FB60FB680023BB602B4B1B6B2A4A21
:1007680043F008031363284B1B6B03F00803BB60BB
:10077800BB6800237B60244B1B6B234A43F00203B6
:100788001363214B1B6B03F002037B607B68002221
:1007980010211E4800F0C6FC002240211C4800F031
:1007A800C1FC002208211B4800F0BCFC1023FB619F
:1007B80001233B6200237B620023BB6207F11C0319
:1007C8001946124800F012FB4023FB6101233B62EB
:1007D80000237B620023BB6207F11C0319460C4807
:1007E80000F004FB0823FB6101233B6200237B62CA
:1007F8000023BB6207F11C031946064800F0F6FA0D
:1008080000BF3037BD4680BD0038024000100240AE
:1008180000180240000C024080B500AF10210248C9
:1008280000F099FC00BF80BD0010024080B500AF09
:10083800024801F0A7F900BF80BD00BF800000207A
:1008480080B582B000AF786000F02AF800BF0837A2
:10085800BD4680BD80B400AF72B600BFFEE70000A1
:1008680080B483B000AF7860054A7B681360054B9D
:1008780000221A7000BF0C37BD465DF8047B704734
:10088800C8000020CC00002080B400AF034B1B78C8
:100898001846BD465DF8047B704700BFCC000020B9
:1008A80080B400AF0A4B1B68002B04D0084B1B68B0
:1008B800013B074A1360064B1B68002B02D1054B0E
:1008C80001221A7000BFBD465DF8047B704700BF67
:1008D800C8000020CC00002080B483B000AF002303
:1008E8007B60104B5B6C0F4A43F4804353640D4BA1
:1008F8005B6C03F480437B607B6800233B60094B9F
:100908001B6C084A43F080531364064B1B6C03F0BE
:1009180080533B603B6800BF0C37BD465DF8047BE5
:10092800704700BF0038024080B58AB000AF7860D9
:1009380007F1140300221A605A609A60DA601A619B
:100948007B681B68194A93422BD100233B61184BE3
:100958005B6C174A43F480535364154B5B6C03F488
:1009680080533B613B690023FB60114B1B6B104AB2
:1009780043F0020313630E4B1B6B03F00203FB608F
:10098800FB6838237B610223BB610023FB610323DF
:100998003B6205237B6207F114031946054800F002
:1009A80025FA00BF2837BD4680BD00BF0030014092
:1009B800003802400004024080B584B000AF78607F
:1009C8007B681B68B3F1804F15D10023FB600C4B8B
:1009D8001B6C0B4A43F001031364094B1B6C03F0B7
:1009E8000103FB60FB68002200211C2000F0C7F90E
:1009F8001C2000F0E0F900BF1037BD4680BD00BFE5
:100A08000038024080B400AFFEE780B400AFFEE7D4
:100A180080B400AFFEE780B400AFFEE780B400AF5B
:100A2800FEE780B400AF00BFBD465DF8047B7047A9
:100A380080B400AF00BFBD465DF8047B704780B44A
:100A480000AF00BFBD465DF8047B704780B500AFBE
:100A580000F09AF800BF80BD80B500AF024801F0F1
:100A680001F900BF80BD00BF8000002080B400AF46
:100A7800064BD3F88830054A43F47003C2F888302F
:100A880000BFBD465DF8047B704700BF00ED00E085
:100A9800DFF834D0FFF7EAFF0C480D490D4A002370
:100AA80002E0D458C4500433C4188C42F9D30A4A1B
:100AB8000A4C002301E013600432A242FBD301F088
:100AC8008FFCFFF7FBFC70470000022000000020AD
:100AD8000C000020682400080C000020D40000202E
:100AE800FEE7000080B500AF0E4B1B680D4A43F4CB
:100AF800007313600B4B1B680A4A43F4806313604E
:100B0800084B1B68074A43F480731360032000F006
:100B18002BF90F2000F008F8FFF7DEFE0023184637
:100B280080BD00BF003C024080B582B000AF786055
:100B3800124B1A68124B1B7819464FF47A73B3FBA1
:100B4800F1F3B2FBF3F3184600F043F90346002B28
:100B580001D001230EE07B680F2B0AD800227968A8
:100B68004FF0FF3000F00BF9064A7B681360002352
:100B780000E0012318460837BD4680BD000000206C
:100B8800080000200400002080B400AF064B1B784A
:100B98001A46064B1B681344044A136000BFBD463F
:100BA8005DF8047B704700BF08000020D0000020DB
:100BB80080B400AF034B1B681846BD465DF8047B44
:100BC800704700BFD000002080B485B000AF7860C7
:100BD8007B6803F00703FB600C4BDB68BB60BA68FB
:100BE8004FF6FF031340BB60FB681A02BB68134350
:100BF80043F0BF6343F40033BB60044ABB68D3606F
:100C080000BF1437BD465DF8047B704700ED00E077
:100C180080B400AF044BDB681B0A03F007031846D7
:100C2800BD465DF8047B704700ED00E080B483B0FA
:100C380000AF0346FB7197F90730002B0BDBFB79FC
:100C480003F01F02074997F907305B09012000FAF2
:100C580002F241F8232000BF0C37BD465DF8047B43
:100C6800704700BF00E100E080B483B000AF0346E6
:100C78003960FB7197F90730002B0ADB3B68DAB261
:100C88000C4997F907301201D2B20B4483F80023BC
:100C98000AE03B68DAB20849FB7903F00F03043B2A
:100CA8001201D2B20B441A7600BF0C37BD465DF86C
:100CB800047B704700E100E000ED00E080B489B0FB
:100CC80000AFF860B9607A60FB6803F00703FB6166
:100CD800FB69C3F10703042B28BF0423BB61FB692D
:100CE8000433062B02D9FB69033B00E000237B6138
:100CF8004FF0FF32BB6902FA03F3DA43BB681A40CC
:100D08007B699A404FF0FF317B6901FA03F3D943BD
:100D18007B680B40134318462437BD465DF8047BB7
:100D28007047000080B582B000AF78607B68013BF7
:100D3800B3F1807F01D301230FE00A4A7B68013BAE
:100D480053600F214FF0FF30FFF78EFF054B002255
:100D58009A60044B07221A60002318460837BD46DC
:100D680080BD00BF10E000E080B582B000AF7860C1
:100D78007868FFF729FF00BF0837BD4680BD80B5FA
:100D880086B000AF0346B9607A60FB7300237B61CD
:100D9800FFF73EFF78617A68B9687869FFF78EFFD8
:100DA800024697F90F3011461846FFF75DFF00BF5E
:100DB8001837BD4680BD80B582B000AF0346FB71D1
:100DC80097F907301846FFF731FF00BF0837BD46CF
:100DD80080BD80B582B000AF78607868FFF7A2FF69
:100DE800034618460837BD4680BD000080B489B068
:100DF80000AF7860396000237B6100233B610023EA
:100E0800BB610023FB616BE10122FB6902FA03F37A
:100E18007B613B681B687A6913403B613A697B696F
:100E28009A4240F05A813B685B6803F00303012B48
:100E380005D03B685B6803F00303022B30D17B6865
:100E48009B68BB61FB695B00032202FA03F3DB4387
:100E5800BA691340BB613B68DA68FB695B0002FA58
:100E680003F3BA691343BB617B68BA699A607B680C
:100E78005B68BB610122FB6902FA03F3DB43BA69D1
:100E88001340BB613B685B681B0903F00102FB6907
:100E980002FA03F3BA691343BB617B68BA695A6003
:100EA8003B685B6803F00303032B17D07B68DB68A0
:100EB800BB61FB695B00032202FA03F3DB43BA69F7
:100EC8001340BB613B689A68FB695B0002FA03F355
:100ED800BA691343BB617B68BA69DA603B685B68CF
:100EE80003F00303022B23D1FB69DA087B6808327D
:100EF80053F82230BB61FB6903F007039B000F2204
:100F080002FA03F3DB43BA691340BB613B681A6911
:100F1800FB6903F007039B0002FA03F3BA69134362
:100F2800BB61FB69DA087B680832B96943F82210AB
:100F38007B681B68BB61FB695B00032202FA03F351
:100F4800DB43BA691340BB613B685B6803F003028B
:100F5800FB695B0002FA03F3BA691343BB617B6860
:100F6800BA691A603B685B6803F44033002B00F0F1
:100F7800B4800023FB60604B5B6C5F4A43F48043A2
:100F880053645D4B5B6C03F48043FB60FB685B4A16
:100F9800FB699B08023352F82330BB61FB6903F0FD
:100FA80003039B000F2202FA03F3DB43BA691340E1
:100FB800BB617B68524A93422BD07B68514A93426B
:100FC80025D07B68504A93421FD07B684F4A934292
:100FD80019D07B684E4A934213D07B684D4A93429E
:100FE8000DD07B684C4A934207D07B684B4A9342AA
:100FF80001D107230EE008230CE006230AE00523AD
:1010080008E0042306E0032304E0022302E00123AE
:1010180000E00023FA6902F0030292009340BA69E3
:101028001343BB613549FB699B080233BA6941F830
:1010380023203B4B9B68BB613B69DB43BA69134088
:10104800BB613B685B6803F48013002B03D0BA696B
:101058003B691343BB61324ABB699360304BDB6821
:10106800BB613B69DB43BA691340BB613B685B68A2
:1010780003F40013002B03D0BA693B691343BB6127
:10108800274ABB69D360264B5B68BB613B69DB437E
:10109800BA691340BB613B685B6803F40033002BFB
:1010A80003D0BA693B691343BB611D4ABB695360EE
:1010B8001B4B1B68BB613B69DB43BA691340BB61CF
:1010C8003B685B6803F48033002B03D0BA693B6943
:1010D8001343BB61124ABB691360FB690133FB61AF
:1010E800FB690F2B7FF690AE00BF00BF2437BD46CB
:1010F8005DF8047B704700BF0038024000380140AB
:10110800000002400004024000080240000C0240B7
:10111800001002400014024000180240001C024067
:10112800003C014080B483B000AF78600B467B8000
:1011380013467B707B78002B03D07A887B689A6192
:1011480003E07B881A047B689A6100BF0C37BD46B0
:101158005DF8047B704780B485B000AF78600B46BB
:101168007B807B685B69FB607A88FB6813401A04A4
:10117800FB68D9437B880B401A437B689A6100BFA0
:101188001437BD465DF8047B7047000080B586B013
:1011980000AF78607B68002B01D1012367E27B6890
:1011A8001B6803F00103002B75D0884B9B6803F084
:1011B8000C03042B0CD0854B9B6803F00C03082B05
:1011C80012D1824B5B6803F48003B3F5800F0BD117
:1011D8007E4B1B6803F40033002B5BD07B685B6895
:1011E800002B57D1012342E27B685B68B3F5803F4F
:1011F80006D1764B1B68754A43F4803313601DE0B3
:101208007B685B68B3F5A02F0CD1704B1B686F4AE5
:1012180043F4802313606D4B1B686C4A43F480339E
:1012280013600BE0694B1B68684A23F48033136032
:10123800664B1B68654A23F4802313607B685B68F0
:10124800002B13D0FFF7B4FC386108E0FFF7B0FCBF
:1012580002463B69D31A642B01D9032307E25B4B8F
:101268001B6803F40033002BF0D014E0FFF7A0FC58
:10127800386108E0FFF79CFC02463B69D31A642BEF
:1012880001D90323F3E1514B1B6803F40033002B0E
:10129800F0D100E000BF7B681B6803F00203002B5D
:1012A80063D04A4B9B6803F00C03002B0BD0474BD1
:1012B8009B6803F00C03082B1CD1444B5B6803F4B8
:1012C8008003002B16D1414B1B6803F00203002B4F
:1012D80005D07B68DB68012B01D00123C7E13B4BBC
:1012E8001B6823F0F8027B681B69DB00374913434E
:1012F8000B603AE07B68DB68002B20D0344B01227E
:101308001A60FFF755FC386108E0FFF751FC024608
:101318003B69D31A022B01D90323A8E12B4B1B6885
:1013280003F00203002BF0D0284B1B6823F0F802CF
:101338007B681B69DB00254913430B6015E0244BD0
:1013480000221A60FFF734FC386108E0FFF730FC30
:1013580002463B69D31A022B01D9032387E11B4BB1
:101368001B6803F00203002BF0D17B681B6803F0B5
:101378000803002B36D07B685B69002B16D0154B11
:1013880001221A60FFF714FC386108E0FFF710FC2F
:1013980002463B69D31A022B01D9032367E10B4BA1
:1013A8005B6F03F00203002BF0D01BE0094B002217
:1013B8001A60FFF7FDFB38610EE0FFF7F9FB024604
:1013C8003B69D31A022B07D9032350E100380240A6
:1013D80000004742800E4742884B5B6F03F00203D0
:1013E800002BEAD17B681B6803F00403002B00F094
:1013F80097800023FB75814B1B6C03F08053002BF7
:101408000FD10023BB607D4B1B6C7C4A43F080539B
:1014180013647A4B1B6C03F08053BB60BB680123D9
:10142800FB75774B1B6803F48073002B18D1744B42
:101438001B68734A43F480731360FFF7B9FB386184
:1014480008E0FFF7B5FB02463B69D31A022B01D926
:1014580003230CE16A4B1B6803F48073002BF0D064
:101468007B689B68012B06D1644B1B6F634A43F072
:10147800010313671CE07B689B68052B0CD15F4B4D
:101488001B6F5E4A43F0040313675C4B1B6F5B4A98
:1014980043F0010313670BE0584B1B6F574A23F0C7
:1014A80001031367554B1B6F544A23F0040313675A
:1014B8007B689B68002B15D0FFF77AFB38610AE040
:1014C800FFF776FB02463B69D31A41F28832934212
:1014D80001D90323CBE0494B1B6F03F00203002B18
:1014E800EED014E0FFF764FB38610AE0FFF760FB19
:1014F80002463B69D31A41F28832934201D9032349
:10150800B5E03E4B1B6F03F00203002BEED1FB7DD1
:10151800012B05D1394B1B6C384A23F080531364D7
:101528007B689B69002B00F0A180344B9B6803F01B
:101538000C03082B5CD07B689B69022B41D1314B93
:1015480000221A60FFF734FB386108E0FFF730FB30
:1015580002463B69D31A022B01D9032387E0274BA4
:101568001B6803F00073002BF0D17B68DA697B6895
:101578001B6A1A437B685B6A9B011A437B689B6AF8
:101588005B08013B1B041A437B68DB6A1B061B498B
:1015980013434B601B4B01221A60FFF709FB3861AC
:1015A80008E0FFF705FB02463B69D31A022B01D975
:1015B80003235CE0114B1B6803F00073002BF0D091
:1015C80054E0104B00221A60FFF7F2FA386108E085
:1015D800FFF7EEFA02463B69D31A022B01D903231F
:1015E80045E0064B1B6803F00073002BF0D13DE08B
:1015F8007B689B69012B07D1012338E00038024042
:1016080000700040600047421B4B5B68FB607B68D2
:101618009B69012B28D0FB6803F480027B68DB6997
:101628009A4221D1FB6803F03F027B681B6A9A4209
:101638001AD1FA6847F6C07313407A68526A920161
:10164800934211D1FB6803F440327B689B6A5B08C4
:10165800013B1B049A4207D1FB6803F070627B6868
:10166800DB6A1B069A4201D0012300E000231846DA
:101678001837BD4680BD00BF0038024080B584B031
:1016880000AF786039607B68002B01D10123CCE082
:10169800684B1B6803F007033A689A420CD9654BFC
:1016A8003A68D2B21A70634B1B6803F007033A68B2
:1016B8009A4201D00123B8E07B681B6803F002035B
:1016C800002B20D07B681B6803F00403002B05D097
:1016D800594B9B68584A43F4E05393607B681B68F6
:1016E80003F00803002B05D0534B9B68524A43F480
:1016F80060439360504B9B6823F0F0027B689B68C3
:101708004D4913438B607B681B6803F00103002B72
:1017180044D07B685B68012B07D1474B1B6803F4F7
:101728000033002B19D101237FE07B685B68022B13
:1017380003D07B685B68032B07D13F4B1B6803F022
:101748000073002B09D101236FE03B4B1B6803F0AA
:101758000203002B01D1012367E0374B9B6823F07C
:1017680003027B685B68344913438B60FFF720FAF8
:10177800F8600AE0FFF71CFA0246FB68D31A41F248
:101788008832934201D903234FE02B4B9B6803F027
:101798000C027B685B689B009A42EBD1254B1B6867
:1017A80003F007033A689A420CD2224B3A68D2B245
:1017B8001A70204B1B6803F007033A689A4201D05D
:1017C800012332E07B681B6803F00403002B08D078
:1017D800194B9B6823F4E0527B68DB681649134376
:1017E8008B607B681B6803F00803002B09D0124B41
:1017F8009B6823F460427B681B69DB000E49134336
:101808008B6000F021F802460B4B9B681B0903F024
:101818000F030A49CB5C22FA03F3094A1360094B08
:101828001B681846FFF780F9002318461037BD4695
:1018380080BD00BF003C0240003802404824000838
:1018480000000020040000202DE9B04F90B000AF48
:1018580000237B630023FB6300233B630023BB63FC
:10186800594B9B6803F00C03082B0DD0082B00F292
:10187800A180002B02D0042B03D09BE0534BBB6309
:101888009BE0534BBB6398E04F4B5B6803F03F030F
:101898007B634D4B5B6803F48003002B28D04A4BD5
:1018A8005B689B0900223B627A623B6AC3F30800CB
:1018B8000021474B03FB01F2002300FB03F3134411
:1018C800434AA0FB0212FA620A46BA62FA6A134451
:1018D800FB627B6B0022BB61FA61D7E90623D7E97B
:1018E8000A01FEF76DFC02460B461346FB6353E004
:1018F800354B5B689B0900223B617A613B69C3F306
:10190800080A4FF0000B52465B464FF000004FF0BC
:101918000001590141EAD261500102460B46B2EB7F
:101928000A0863EB0B094FF000024FF000034FEA7F
:10193800891343EA98634FEA8812B2EB080463EB11
:1019480009054FF000024FF00003EB0043EA54731F
:10195800E20014461D4614EB0A033B6045EB0B03FB
:101968007B604FF000024FF00003D7E9004529469D
:101978008B02214643EA915321468A0210461946B2
:101988007B6B0022BB60FA60D7E90223FEF718FCE4
:1019980002460B461346FB630B4B5B681B0C03F0BC
:1019A800030301335B003B63FA6B3B6BB2FBF3F35E
:1019B800BB6302E0054BBB6300BFBB6B18464037F7
:1019C800BD46BDE8B08F00BF003802400024F400D7
:1019D80040787D0180B582B000AF78607B68002BCD
:1019E80001D101237BE07B685B6A002B08D17B680F
:1019F8005B68B3F5827F09D07B680022DA6105E075
:101A08007B6800221A617B6800225A617B68002289
:101A18009A627B6893F85130DBB2002B06D17B6861
:101A2800002283F850207868FEF77EFF7B68022248
:101A380083F851207B681B681A687B681B6822F052
:101A480040021A607B685B6803F482727B689B685B
:101A580003F404431A437B68DB6803F400631A4306
:101A68007B681B6903F002031A437B685B6903F018
:101A780001031A437B689B6903F400731A437B686C
:101A8800DB6903F038031A437B681B6A03F08003A1
:101A980042EA03017B689B6A03F400527B681B6877
:101AA8000A431A607B689B691B0C03F004017B687E
:101AB8005B6A03F010027B681B680A435A607B6804
:101AC8001B68DA697B681B6822F40062DA617B684C
:101AD80000225A657B68012283F8512000231846AA
:101AE8000837BD4680BD80B582B000AF78607B689E
:101AF800002B01D1012341E07B6893F83D30DBB234
:101B0800002B06D17B68002283F83C207868FEF71A
:101B180053FF7B68022283F83D207B681A687B6844
:101B280004331946104600F07DFA7B68012283F8D9
:101B380046207B68012283F83E207B68012283F8D7
:101B48003F207B68012283F840207B68012283F8CC
:101B580041207B68012283F842207B68012283F8B8
:101B680043207B68012283F844207B68012283F8A4
:101B780045207B68012283F83D200023184608375A
:101B8800BD4680BD80B485B000AF78607B6893F8AF
:101B98003D30DBB2012B01D001234EE07B680222ED
:101BA80083F83D207B681B68DA687B681B6842F015
:101BB8000102DA607B681B68234A934222D07B6863
:101BC8001B68B3F1804F1DD07B681B681F4A934286
:101BD80018D07B681B681E4A934213D07B681B6829
:101BE8001C4A93420ED07B681B681B4A934209D05B
:101BF8007B681B68194A934204D07B681B68184AA3
:101C0800934211D17B681B689B6803F00703FB6054
:101C1800FB68062B10D07B681B681A687B681B68FA
:101C280042F001021A6007E07B681B681A687B684B
:101C38001B6842F001021A60002318461437BD469B
:101C48005DF8047B704700BF0000014000040040BD
:101C580000080040000C0040000401400040014022
:101C68000018004080B584B000AF78607B681B68BE
:101C7800DB68FB607B681B681B69BB60BB6803F0A3
:101C88000203002B20D0FB6803F00203002B1BD0BB
:101C98007B681B686FF002021A617B6801221A7761
:101CA8007B681B689B6903F00303002B03D07868EB
:101CB80000F099F905E0786800F08BF9786800F091
:101CC8009CF97B6800221A77BB6803F00403002B99
:101CD80020D0FB6803F00403002B1BD07B681B6833
:101CE8006FF004021A617B6802221A777B681B680E
:101CF8009B6903F44073002B03D0786800F073F9F4
:101D080005E0786800F065F9786800F076F97B6896
:101D180000221A77BB6803F00803002B20D0FB6869
:101D280003F00803002B1BD07B681B686FF00802C8
:101D38001A617B6804221A777B681B68DB6903F0E9
:101D48000303002B03D0786800F04DF905E07868AC
:101D580000F03FF9786800F050F97B6800221A77A4
:101D6800BB6803F01003002B20D0FB6803F01003BE
:101D7800002B1BD07B681B686FF010021A617B6810
:101D880008221A777B681B68DB6903F44073002B11
:101D980003D0786800F027F905E0786800F019F9B1
:101DA800786800F02AF97B6800221A77BB6803F08C
:101DB8000103002B0CD0FB6803F00103002B07D0B4
:101DC8007B681B686FF001021A617868FEF738FDBE
:101DD800BB6803F08003002B0CD0FB6803F0800382
:101DE800002B07D07B681B686FF080021A61786847
:101DF80000F0E4FABB6803F04003002B0CD0FB684A
:101E080003F04003002B07D07B681B686FF040028B
:101E18001A61786800F0FBF8BB6803F02003002B18
:101E28000CD0FB6803F02003002B07D07B681B68ED
:101E38006FF020021A61786800F0B6FA00BF103718
:101E4800BD4680BD80B584B000AF7860396000239E
:101E5800FB737B6893F83C30012B01D10223B4E07B
:101E68007B68012283F83C207B68022283F83D20AE
:101E78007B681B689B68BB60BB6823F07703BB600B
:101E8800BB6823F47F43BB607B681B68BA689A60B1
:101E98003B681B68B3F5005F3ED0B3F5005F00F206
:101EA8008780B3F5805F00F08680B3F5805F7FD8C8
:101EB800702B1AD0702B7BD8602B50D0602B77D822
:101EC800502B3CD0502B73D8402B58D0402B6FD878
:101ED800302B64D0302B6BD8202B60D0202B67D8C8
:101EE800002B5CD0102B5AD062E07B6818683B68E6
:101EF80099683B685A683B68DB6800F0B9F97B6809
:101F08001B689B68BB60BB6843F07703BB607B685A
:101F18001B68BA689A604FE07B6818683B689968E4
:101F28003B685A683B68DB6800F0A2F97B681B686D
:101F38009A687B681B6842F480429A603CE07B6840
:101F480018683B6859683B68DB681A4600F016F960
:101F58007B681B685021184600F06FF92CE07B68FD
:101F680018683B6859683B68DB681A4600F035F921
:101F78007B681B686021184600F05FF91CE07B68ED
:101F880018683B6859683B68DB681A4600F0F6F841
:101F98007B681B684021184600F04FF90CE07B680D
:101FA8001A683B681B681946104600F046F903E0BA
:101FB8000123FB7300E000BF7B68012283F83D200A
:101FC8007B68002283F83C20FB7B18461037BD460F
:101FD80080BD80B483B000AF786000BF0C37BD46C9
:101FE8005DF8047B704780B483B000AF786000BFB1
:101FF8000C37BD465DF8047B704780B483B000AFF2
:10200800786000BF0C37BD465DF8047B704780B42C
:1020180083B000AF786000BF0C37BD465DF8047B25
:102028007047000080B485B000AF786039607B6885
:102038001B68FB607B68464A934213D07B68B3F108
:10204800804F0FD07B68434A93420BD07B68424A4B
:10205800934207D07B68414A934203D07B68404A49
:10206800934208D1FB6823F07003FB603B685B6810
:10207800FA681343FB607B68354A93422BD07B6830
:10208800B3F1804F27D07B68324A934223D07B68D4
:10209800314A93421FD07B68304A93421BD07B68F9
:1020A8002F4A934217D07B682E4A934213D07B68FD
:1020B8002D4A93420FD07B682C4A93420BD07B6801
:1020C8002B4A934207D07B682A4A934203D07B6805
:1020D800294A934208D1FB6823F44073FB603B68AC
:1020E800DB68FA681343FB60FB6823F080023B68F7
:1020F8005B691343FB607B68FA681A603B689A68FF
:102108007B68DA623B681A687B689A627B68104A67
:10211800934203D07B68124A934203D13B681A6901
:102128007B681A637B6801225A617B681B6903F02C
:102138000103012B05D17B681B6923F001027B6831
:102148001A6100BF1437BD465DF8047B704700BFB5
:10215800000001400004004000080040000C00405E
:102168000004014000400140004401400048014093
:1021780000180040001C00400020004080B487B0D8
:1021880000AFF860B9607A60FB681B6A7B61FB6826
:102198001B6A23F00102FB681A62FB689B693B61BA
:1021A8003B6923F0F0033B617B681B013A691343E9
:1021B8003B617B6923F00A037B617A69BB6813433F
:1021C8007B61FB683A699A61FB687A691A6200BFA9
:1021D8001C37BD465DF8047B704780B487B000AFFC
:1021E800F860B9607A60FB681B6A7B61FB681B6AF0
:1021F80023F01002FB681A62FB689B693B613B692C
:1022080023F470433B617B681B033A6913433B61CA
:102218007B6923F0A0037B61BB681B017A691343C8
:102228007B61FB683A699A61FB687A691A6200BF48
:102238001C37BD465DF8047B704780B485B000AF9D
:10224800786039607B689B68FB60FB6823F07003EB
:10225800FB603A68FB68134343F00703FB607B6845
:10226800FA689A6000BF1437BD465DF8047B704772
:1022780080B487B000AFF860B9607A603B60FB68F3
:102288009B687B617B6923F47F437B613B681A020F
:102298007B681A43BB6813437A6913437B61FB6805
:1022A8007A699A6000BF1C37BD465DF8047B7047A9
:1022B80080B485B000AF786039607B6893F83C30B3
:1022C800012B01D102235AE07B68012283F83C20CC
:1022D8007B68022283F83D207B681B685B68FB6093
:1022E8007B681B689B68BB60FB6823F07003FB601E
:1022F8003B681B68FA681343FB607B681B68FA68D5
:102308005A607B681B68214A934222D07B681B680D
:10231800B3F1804F1DD07B681B681D4A934218D0CB
:102328007B681B681B4A934213D07B681B681A4A58
:1023380093420ED07B681B68184A934209D07B6889
:102348001B68174A934204D07B681B68154A93425E
:102358000CD1BB6823F08003BB603B685B68BA683C
:102368001343BB607B681B68BA689A607B6801226C
:1023780083F83D207B68002283F83C200023184620
:102388001437BD465DF8047B704700BF000001406C
:102398000004004000080040000C00400004014018
:1023A800004001400018004080B483B000AF78605E
:1023B80000BF0C37BD465DF8047B704780B483B01E
:1023C80000AF786000BF0C37BD465DF8047B7047EE
:1023D80002440346934200D1704703F8011BF9E712
:1023E80070B50D4D0D4C641BA4100026A64209D1F2
:1023F8000B4D0C4C00F018F8641BA4100026A642E4
:1024080005D170BD55F8043B98470136EEE755F8FD
:10241800043B98470136F2E760240008602400086E
:102428006024000864240008F8B500BFF8BC08BCA4
:102438009E467047F8B500BFF8BC08BC9E4670477A
:10244800000000000000000001020304060708095C
:08245800A0DDFF7F0100000080
:04246000AD010008C2
:0424640089010008E2
:0C2468000024F40010000000010000003F
:0400000508000A994C
:00000001FF
